:020000040810E2
:10000000008004100D2810081506100817061008A7
:10001000190610081B0610081D0610080000000035
:100020000000000000000000000000004125100852
:100030001F06100800000000E12510082106100826
:10004000612810086128100861281008612810082C
:10005000612810086128100861281008612810081C
:10006000612810086128100861281008612810080C
:1000700061281008612810086128100861281008FC
:1000800061281008612810086128100861281008EC
:1000900061281008612810086128100861281008DC
:1000A00061281008612810086128100861281008CC
:1000B00061281008612810086128100861281008BC
:1000C00061281008612810086128100861281008AC
:1000D000612810086128100861281008612810089C
:1000E000612810086128100800000000612810082D
:1000F000612810086128100861281008612810087C
:10010000612810086128100861281008612810086B
:10011000612810086128100861281008612810085B
:10012000612810086128100861281008612810084B
:10013000612810086128100861281008612810083B
:10014000612810086128100800000000000000006D
:10015000612810086128100861281008612810081B
:10016000612810086128100861281008612810080B
:1001700061281008612810086128100861281008FB
:1001800061281008612810086128100861281008EB
:1001900061281008612810086128100861281008DB
:1001A00061281008612810086128100861281008CB
:1001B00061281008612810086128100861281008BB
:1001C00061281008612810086128100861281008AB
:1001D000612810086128100861281008612810089B
:1001E000612810086128100861281008612810088B
:1001F000612810086128100861281008612810087B
:10020000612810086128100861281008612810086A
:10021000612810086128100861281008612810085A
:1002200061281008612810086128100800000000EB
:10023000612810086128100861281008612810083A
:10024000612810086128100861281008612810082A
:10025000612810086128100861281008612810081A
:10026000612810086128100861281008612810080A
:1002700061281008612810086128100861281008FA
:10028000612810086128100861281008000000008B
:08029000612810086128100824
:1002A0000348044B834202D0034B03B11847704705
:1002B0001400001014000010000000000548064B58
:1002C0001B1AD90F01EBA301491002D0034B03B154
:1002D00018477047140000101400001000000000C0
:1002E00010B5064C237843B9FFF7DAFF044B13B17E
:1002F0000448AFF300800123237010BD14000010E8
:10030000000000006428100808B5044B1BB1044924
:100310000448AFF30080BDE80840CFE700000000CC
:10032000180000106428100870B50F4B0F4DAB4239
:10033000A3EB050607D0B610002455F8043B0134A2
:100340009847A642F9D802F08DFA094D094B5E1B79
:10035000AB424FEAA60606D0002455F8043B013410
:100360009847A642F9D870BDDC281008DC28100890
:10037000DC281008E0281008830730B547D0541E49
:10038000002A3ED0CAB2034601E0013C39D303F84B
:10039000012B9D07F9D1032C2CD9CDB205EB0525F6
:1003A0000F2C05EB054535D9A4F1100222F00F0CF6
:1003B00003F1100EE6444FEA121C1A46C2E900553A
:1003C000C2E9025510327245F8D10CF1010214F065
:1003D0000C0F03EB021204F00F0C13D0ACF104036A
:1003E00023F003030433134442F8045B9342FBD12C
:1003F0000CF003042CB1C9B21C4403F8011BA34246
:10040000FBD130BD64461346002CF4D1F9E7034616
:100410001446C0E71A46A446E0E700BF844641EA16
:10042000000313F003036DD1403A41D351F8043B6C
:1004300040F8043B51F8043B40F8043B51F8043BBE
:1004400040F8043B51F8043B40F8043B51F8043BAE
:1004500040F8043B51F8043B40F8043B51F8043B9E
:1004600040F8043B51F8043B40F8043B51F8043B8E
:1004700040F8043B51F8043B40F8043B51F8043B7E
:1004800040F8043B51F8043B40F8043B51F8043B6E
:1004900040F8043B51F8043B40F8043B51F8043B5E
:1004A00040F8043B51F8043B40F8043B403ABDD2CD
:1004B000303211D351F8043B40F8043B51F8043B6F
:1004C00040F8043B51F8043B40F8043B51F8043B2E
:1004D00040F8043B103AEDD20C3205D351F8043BFE
:1004E00040F8043B043AF9D2043208D0D2071CBFCA
:1004F00011F8013B00F8013B01D30B8803806046F3
:10050000704700BF082A13D38B078DD010F0030368
:100510008AD0C3F10403D21ADB071CBF11F8013BD8
:1005200000F8013B80D331F8023B20F8023B7BE727
:10053000043AD9D3013A11F8013B00F8013BF9D252
:100540000B7803704B7843708B78837060467047EC
:1005500082B0074BD3F8D82042F00102C3F8D8206C
:10056000D3F8D83003F001030193019B02B0704728
:100570000044025808B5012001F040FEFBE70000EE
:1005800000B583B01D4BD3F8E02042F00072C3F8F1
:10059000E020D3F8E03003F000730193019B0120C9
:1005A00000F060F900F0BEF901220221002000F005
:1005B00061F9134B1B6803F0F003702B16D0114A3E
:1005C000D2F8143143F00103C2F8143100F050FAAC
:1005D000FFF7BEFF01F086FD0B4A00210B4801F03A
:1005E000AFFD0B4B186001F08FFDFEE7054AD2F816
:1005F000043143F00103C2F80431E7E70044025834
:1006000000ED00E000640258A028100875051008ED
:1006100030000010FEE7FEE7FEE7FEE7FEE770476A
:1006200008B500F071FA01F0D5FA012800D108BD33
:1006300002F008F8FBE7000000B583B00A4BD3F8DE
:10064000F42042F00202C3F8F420D3F8F43003F0AF
:1006500002030193019B00220F216FF0010000F0C3
:10066000AFF903B05DF804FB00440258754B1B69F9
:1006700003F03803102B00F0DE80182B0FD0002B76
:1006800040F0DB806F4B1B6813F0200F00F0D78029
:100690006C4B1B68C3F3C1036B48D840704710B460
:1006A000684B9A6A02F003029C6AC4F30510D96A87
:1006B00001F001015B6BC3F3CC0301FB03F307EE15
:1006C000903AF8EE677A14F47C7F77D0012A4AD00A
:1006D000022A76D0002A40F091805A4B1B6813F012
:1006E000200F23D057490A68C2F3C102564BD340AA
:1006F00007EE103AF8EE476A07EE100AB8EE476ABE
:1007000086EE867A0B6BC3F3080306EE903AF8EE9A
:10071000666A9FED4E6A67EE867A76EEA77AF7EE06
:10072000006A77EEA67A27EE277A38E007EE100AFD
:10073000F8EE476A9FED466A86EE267A414B1B6BC0
:10074000C3F3080306EE903AF8EE666A9FED3F6A3F
:1007500067EE867A76EEA77AF7EE006A77EEA67AEB
:1007600027EE277A1BE007EE100AF8EE476A9FEDA6
:10077000396A86EE267A334B1B6BC3F3080306EE09
:10078000903AF8EE666A9FED316A67EE867A76EE09
:10079000A77AF7EE006A77EEA67A27EE277A294B3A
:1007A0001B6BC3F34623013307EE903AF8EE677AEA
:1007B000C7EE276AFCEEE67A17EE900A5DF8044B66
:1007C000704707EE100AF8EE476A9FED236A86EE3F
:1007D000267A1C4B1B6BC3F3080306EE903AF8EE27
:1007E000666A9FED1A6A67EE867A76EEA77AF7EE6A
:1007F000006A77EEA67A27EE277AD0E707EE100A8E
:10080000F8EE476A9FED136A86EE267A0D4B1B6B56
:10081000C3F3080306EE903AF8EE666A9FED0B6AA2
:1008200067EE867A76EEA77AF7EE006A77EEA67A1A
:1008300027EE277AB3E7094870470948704702480E
:10084000704700BF004402580090D00300000039F8
:100850000024744C0024744A20BCBE4B40787D01B7
:1008600000093D00024A136903431361704700BF4A
:100870000065025838B50D46284C236823F0010363
:10088000034323605AB1012A25D000F0BDF80328A4
:100890003ED0224A536923F00403536138BD00F06F
:1008A000B3F80328FAD1236923F0010323611C4A1A
:1008B000136943F004031361BFF34F8FBFF36F8FCE
:1008C000012D06D020BF164A136923F004031361DB
:1008D000E4E730BFF7E700F097F80128DED10F4AD0
:1008E000536923F0020353610D4A136943F0040373
:1008F0001361BFF34F8FBFF36F8F012D06D020BF61
:10090000074A136923F004031361C7E730BFF7E711
:10091000024A136923F004031361BFE70048025839
:1009200000ED00E008B500F06FF8032802D040BFEA
:1009300020BF08BD20BFFCE7002804DB0901C9B2C5
:10094000044B1954704700F00F000901C9B2024B63
:100950001954704700E400E014ED00E000B500F029
:100960000700C0F1070CBCF1040F28BF4FF0040CC6
:10097000031D062B0FD9C31E4FF0FF3E0EFA0CF0DD
:1009800021EA000199400EFA03FE22EA0E0241EA32
:1009900002005DF804FB0023EEE700000649CB6887
:1009A00023F4E0631B041B0C000200F4E06003432B
:1009B000024A1A43CA60704700ED00E00000FA05E1
:1009C00010B50446054BD868C0F30220FFF7C6FFF8
:1009D00001462046FFF7B0FF10BD00BF00ED00E06C
:1009E0000138B0F1807F0BD24FF0E0235861054A07
:1009F000F02182F823100020986107221A617047C5
:100A00000120704700ED00E0044B1B6803F0F00389
:100A1000702B01D0012070470320704700ED00E0EB
:100A2000104B1B780BB90120704710B504464FF4EA
:100A30007A70B0FBF3F30C4A1068B0FBF3F0FFF7E9
:100A4000CFFF68B90F2C01D901200AE0002221460E
:100A50004FF0FF30FFF7B4FF044B1C60002000E0B4
:100A6000012010BD000000100C0000100400001058
:100A700010B582B01F4CD4F8D83043F48043C4F88A
:100A8000D830D4F8D83003F480430193019B1A4A3C
:100A9000D2F800346FF3132343F40143C2F8003457
:100AA000D2F8003443F00103C2F800340320FFF70A
:100AB00075FFFFF7DBFDA369C3F303230F4AD35C84
:100AC00003F01F03D840A36903F00F03D35C03F0C6
:100AD0001F03D8400A4B18600A4B18600F20FFF71D
:100AE0009FFF18B10124204602B010BD0446FFF755
:100AF000A3FDF8E70044025800400240C428100853
:100B0000080000100C000010034B1B78034A11680A
:100B10000B441360704700BF000000103400001049
:100B2000054BD3F8882042F47002C3F888201A6974
:100B300042F010021A61704700ED00E0054AD368E8
:100B400023F00203D360034B5B6813F4005FFAD019
:100B5000704700BF0048025800F1080343604FF09F
:100B6000FF328260C360036100230360704700238B
:100B70000361704743684B609A688A60516099606E
:100B80000861036801330360704730B40D68B5F144
:100B9000FF3F11D000F108031C465B681A68AA42A7
:100BA000FAD963684B6099608C6061600861036882
:100BB0000133036030BC70470469F2E703694168A0
:100BC00082688A60416851605A68824206D0002279
:100BD00002611A68013A1A601868704782685A60A0
:100BE000F5E710B5044601F0BDFCA26BE36B9A4239
:100BF00004D0002401F0D8FC204610BD0124F9E700
:100C000010B5044601F0AEFCA36B23B9012401F03A
:100C1000CBFC204610BD0024F9E770B5044615460C
:100C2000866B026C5AB903681BB100200136A663BB
:100C300070BD806800F0DEFF0023A360F6E76DB9A9
:100C40004068FFF7EBFB6368226C13446360A268A3
:100C5000934219D3236863602846E7E7C068FFF72B
:100C6000DDFBE368226C51429B1AE36022689342E9
:100C700002D2A3680B44E360022D01D00020D5E727
:100C800026B1013E0020D1E72846CFE70020CDE77E
:100C90000346026C6AB110B50846D9681144D960A0
:100CA0009C68A14201D31968D960D968FFF7B6FBE7
:100CB00010BD704738B5054601F054FC95F8454025
:100CC00064B201E0013C64B2002C0ADD6B6A43B1FE
:100CD00005F1240000F0E4FE0028F3D000F074FFDA
:100CE000F0E7FF2385F8453001F05EFC01F03AFCA7
:100CF00095F8444064B201E0013C64B2002C0ADD86
:100D00002B6943B105F1100000F0CAFE0028F3D0B2
:100D100000F05AFFF0E7FF2385F8443001F044FC6F
:100D200038BD38B5E0B10D46044601F01BFC236820
:100D3000E26B216C01FB0230A0600020A0636360C5
:100D4000013A02FB0133E360FF2384F8443084F866
:100D50004530FDB9236963B901F026FC012038BD97
:100D60004FF0500383F31188BFF36F8FBFF34F8FA2
:100D7000FEE704F1100000F093FE0028ECD04FF0E5
:100D8000E0234FF08052C3F8042DBFF34F8FBFF321
:100D90006F8FE1E704F11000FFF7DEFE04F124009D
:100DA000FFF7DAFED8E738B51D46049C0B4649B973
:100DB0002460E063236401212046FFF7B2FF84F83A
:100DC0004C5038BD2260F4E740B94FF0500383F334
:100DD0001188BFF36F8FBFF34F8FFEE710B584B05C
:100DE0001C4683B10B1E18BF0123002A08BF43F025
:100DF00001038BB94FF0500383F31188BFF36F8F5A
:100E0000BFF34F8FFEE74FF0500383F31188BFF31A
:100E10006F8FBFF34F8FFEE7B1FA81F35B09002AB2
:100E200018BF43F0010343B94FF0500383F3118817
:100E3000BFF36F8FBFF34F8FFEE750230393039BE6
:100E4000502B08D04FF0500383F31188BFF36F8FFE
:100E5000BFF34F8FFEE7039B012384F846300094D5
:100E60009DF81830FFF79FFF204604B010BDF0B585
:100E700085B0019288B10F461D460446B1B1022DDE
:100E800020D1E36B012B1DD04FF0500383F3118869
:100E9000BFF36F8FBFF34F8FFEE74FF0500383F325
:100EA0001188BFF36F8FBFF34F8FFEE7036C002BEA
:100EB000E5D04FF0500383F31188BFF36F8FBFF37A
:100EC0004F8FFEE700F086FE064658B9019B002BC7
:100ED00048D04FF0500383F31188BFF36F8FBFF3F7
:100EE0004F8FFEE700263DE02A4639462046FFF7B1
:100EF00094FE636A7BB948B14FF0E0234FF0805213
:100F0000C3F8042DBFF34F8FBFF36F8F01F04CFB7D
:100F1000012005B0F0BD04F1240000F0C1FD00285F
:100F2000F4D04FF0E0234FF08052C3F8042DBFF30C
:100F30004F8FBFF36F8FE9E701F036FB0020E8E742
:100F400002A800F0F3FD012619E0002384F84430E4
:100F500021E0002384F8453023E02046FFF7AAFE75
:100F600000F07CFC01F0FEFAA26BE36B9A42BBD36B
:100F7000022DB9D0019B002BDED0002EE0D001F075
:100F800013FB00F0D1FB01F0EDFA94F8442052B2CB
:100F9000B2F1FF3FD9D094F8452052B2B2F1FF3FF1
:100FA000D7D001F001FB01A902A800F0CBFDD8B910
:100FB0002046FFF716FE0028CFD0019904F110005B
:100FC00000F03AFD2046FFF775FE00F047FC0028D0
:100FD000C8D14FF0E0234FF08052C3F8042DBFF387
:100FE0004F8FBFF36F8FBDE72046FFF763FE00F022
:100FF00035FC00208DE72DE9F84390B10F461646E9
:101000001C460546B1B1022C20D1EB6B012B1DD043
:101010004FF0500383F31188BFF36F8FBFF34F8FEF
:10102000FEE74FF0500383F31188BFF36F8FBFF3D8
:101030004F8FFEE7036C002BE5D04FF0500383F396
:101040001188BFF36F8FBFF34F8FFEE701F0B0FB46
:10105000EFF311884FF0500383F31188BFF36F8FC4
:10106000BFF34F8FAA6BEB6B9A4206D3022C04D0CE
:10107000002088F31188BDE8F88395F845904FFA71
:1010800089F9AB6B224639462846FFF7C6FDB9F110
:10109000FF3F06D009F101035BB285F8453001201E
:1010A000E7E76B6A0BB90120E3E705F1240000F0E4
:1010B000F7FC18B126B101203060DAE70120D8E74B
:1010C0000120D6E7F0B585B0019290B10F460446F5
:1010D000C1B100F07FFD064600BB019B002B5ED036
:1010E0004FF0500383F31188BFF36F8FBFF34F8F1F
:1010F000FEE74FF0500383F31188BFF36F8FBFF308
:101100004F8FFEE7036C002BE3D04FF0500383F3C7
:101110001188BFF36F8FBFF34F8FFEE700263EE0CD
:1011200039462046FFF7B4FD013DA563236923B985
:1011300001F03AFA012005B0F0BD04F1100000F012
:10114000AFFC0028F4D04FF0E0234FF08052C3F8FA
:10115000042DBFF34F8FBFF36F8FE9E701F024FA3F
:101160000020E8E702A800F0E1FC012621E00023CE
:1011700084F8443029E0002384F845302BE02046F1
:10118000FFF798FD00F06AFB09E02046FFF792FDAB
:1011900000F064FB2046FFF733FD00283FD101F04B
:1011A000E1F9A56B002DBBD1019B002BD6D0002E01
:1011B000D8D001F0F9F900F0B7FA01F0D3F994F8BA
:1011C00044305BB2B3F1FF3FD1D094F845305BB20D
:1011D000B3F1FF3FCFD001F0E7F901A902A800F079
:1011E000B1FC0028D1D12046FFF70AFD0028C6D067
:1011F000019904F1240000F01FFC2046FFF75AFD7E
:1012000000F02CFB0028CAD14FF0E0234FF08052B1
:10121000C3F8042DBFF34F8FBFF36F8FBFE70020DC
:1012200089E700000023072B0CD8074A52F8332027
:101230000AB10133F7E7044A42F8331002EBC30264
:1012400050607047704700BF3800001070B504460A
:101250000D46164601F086F994F844305BB2B3F1BE
:10126000FF3F0DD094F845305BB2B3F1FF3F0BD098
:1012700001F09AF9A36B5BB12046FFF71BFD70BD2F
:10128000002384F84430EDE7002384F84530EFE78D
:101290003246294604F1240000F0E6FBECE70000AA
:1012A000084B1B681B6823B9074B4FF0FF321A60CD
:1012B0007047044B1B68DB68DB685A68024B1A6096
:1012C000704700BFE8000010800000102DE9F047D3
:1012D00080460D4617469946089EDDF824A00A9CD4
:1012E0009200A521206BFFF747F8236B6FF0404277
:1012F0003A4403EB820727F00707A5B34FF0000C31
:10130000BCF10F0F09D815F80C3004EB0C0282F871
:10131000343013B10CF1010CF2E7002384F84330B0
:10132000372E00D93726E662E66400252565201DA4
:10133000FFF71DFC04F11800FFF719FC2461C6F14A
:101340003806A6616462656584F858504A4641468D
:10135000384601F0DBF82060BAF1000F01D0CAF87E
:101360000040BDE8F087002384F83430D8E700005F
:1013700038B5002407E004EB840293000E481844BB
:10138000FFF7EAFB0134372CF5D90C4D2846FFF75F
:10139000E3FB0B4C2046FFF7DFFB0A48FFF7DCFBC3
:1013A0000948FFF7D9FB0948FFF7D6FB084B1D603A
:1013B000084B1C6038BD00BF140100100001001074
:1013C000EC000010D0000010BC000010A4000010C1
:1013D000E8000010E400001010B5044601F0C2F867
:1013E000224A136801331360214B1B685BB1214B08
:1013F0001B686BB91E4B1B68DA6AE36A9A4207D80E
:101400001B4B1C6004E01A4B1C601368012B29D095
:10141000194A1368013313606364E06A174B1B6851
:10142000984201D9154B186000EB8000211D144B28
:1014300003EB8000FFF79EFB01F0B6F80D4B1B6835
:101440007BB10B4B1B68DA6AE36A9A4209D24FF010
:10145000E0234FF08052C3F8042DBFF34F8FBFF34A
:101460006F8F10BDFFF784FFD2E700BFA000001010
:101470007405001094000010840000109800001003
:101480001401001010B5044690F8593063B1012BD7
:1014900011D0022B0ED04FF0500383F31188BFF30D
:1014A0006F8FBFF34F8FFEE7006B00F0B3FF204656
:1014B00000F0B0FF10BD00F0ADFFFBE70F4B1B6865
:1014C000D3B110B501F04EF80D4BDB68DC68201D80
:1014D000FFF774FB0B4A1368013B1360074A13685C
:1014E000013B136001F060F82046FFF7CBFF034B90
:1014F0001B68002BE6D110BD704700BFB80000107C
:10150000BC000010A000001008B5FFF7D7FF074B84
:101510001B68012BF9D94FF0E0234FF08052C3F83C
:10152000042DBFF34F8FBFF36F8FEEE71401001050
:1015300070B504460D46194B1E68194B18680430E7
:10154000FFF73CFBB4F1FF3F14BF00230123002D44
:1015500008BF00236BB93444114B1B685C60A64282
:101560000ED9104B18680E4B19680431FFF70DFBAC
:1015700070BD0B4B196804310B48FFF7FBFAF7E716
:101580000A4B1868064B19680431FFF7FEFA084B3E
:101590001B68A342ECD9064B1C60E9E79C000010D5
:1015A00074050010E4000010A4000010E800001012
:1015B0008000001030B587B00B9C7CB10C9DB5B19C
:1015C0005C250495049D5C2D1AD04FF0500383F3E5
:1015D0001188BFF36F8FBFF34F8FFEE74FF05003BB
:1015E00083F31188BFF36F8FBFF34F8FFEE74FF088
:1015F000500383F31188BFF36F8FBFF34F8FFEE764
:10160000049D0C9D2C63022485F85940002403940A
:10161000029505AC01940A9C0094FFF757FE0C98C4
:10162000FFF7DAFE059807B030BD2DE9F04385B02D
:101630000746884614461E46900000F069FE08B32F
:1016400081465C2000F064FE0546A8B1C0F83090E9
:10165000002380F85930039302900D9B01930C9B5B
:1016600000933346224641463846FFF72FFE284670
:10167000FFF7B2FE012007E0484600F0CBFE4FF036
:10168000FF3001E04FF0FF3005B0BDE8F08300000F
:1016900010B588B000240594069407AA06A905A8E9
:1016A00000F0BAFD059B0293069B0193009423462C
:1016B000079A17491748FFF77DFF174B1860C0B10D
:1016C00000F050FB012815D14FF0500383F311882F
:1016D000BFF36F8FBFF34F8F104B4FF0FF321A6085
:1016E0000F4B01221A600F4B00221A6000F0D4FF4A
:1016F00003E00020B0F1FF3F01D008B010BD4FF073
:10170000500383F31188BFF36F8FBFF34F8FFEE752
:1017100088281008091510087C00001080000010AF
:10172000940000109C000010024A136801331360FB
:10173000704700BF78000010014B1868704700BF69
:101740009C000010F8B53A4B1B68002B69D1394B4F
:101750001D6801351D60C5B9374B1B681B6843B157
:101760004FF0500383F31188BFF36F8FBFF34F8F98
:10177000FEE7314A1168314B186810601960304A31
:10178000136801331360FFF78BFD2E4B1B68AB42D0
:101790003DD900272C4B1B68DB6A03EB83039A00BF
:1017A0002A4B9B58012B00D90127294B1B68002B82
:1017B0003CD001273AE001271F4B1B681B6843B34D
:1017C0001D4B1B68DB68DC6863689D4226D3261DC1
:1017D0003046FFF7F3F9A36A1BB104F11800FFF7D5
:1017E000EDF9E36A1B4A1268934201D9194A136062
:1017F00003EB83039A00314614481044FFF7BAF90B
:10180000E26A114B1B68DB6A9A42D4D2D4E7002704
:10181000D2E70C4B4FF0FF321A60BBE7094A136066
:10182000B8E70D4A13680133136000273846F8BD46
:10183000780000109C000010E8000010E400001088
:1018400088000010800000107405001014010010C2
:101850008C000010980000109000001038B5354B37
:101860001B6843B94FF0500383F31188BFF36F8FA8
:10187000BFF34F8FFEE700F075FE2E4B1A68013A5A
:101880001A601B68002B4FD12B4B1B680BB900242F
:101890004BE00024294B1B681BB3284BDB68DC683A
:1018A00004F11800FFF78AF9251D2846FFF786F98D
:1018B000E06A234B1B68984201D9214B186000EB6A
:1018C000800029461F4B03EB8000FFF753F9E26AC3
:1018D0001D4B1B68DB6A9A42DCD31C4B01221A6049
:1018E000D8E70CB1FFF7DCFC194B1C6884B9174B27
:1018F0001C68D4B14FF0E0234FF08052C3F8042DA0
:10190000BFF34F8FBFF36F8F01240EE0013C07D070
:10191000FFF718FF0028F9D00C4B01221A60F5E7F9
:101920000B4B00221A60E2E7002400F03DFE204647
:1019300038BD00BF78000010A0000010D0000010DB
:101940009800001014010010740500108C000010A5
:101950009000001010B5A8B10446104B1B6843B1AD
:101960004FF0500383F31188BFF36F8FBFF34F8F96
:10197000FEE7FFF7D9FE00212046FFF7D9FDFFF76C
:101980006DFF48B94FF0E0234FF08052C3F8042DAB
:10199000BFF34F8FBFF36F8F10BD00BF78000010F3
:1019A000204B1B681BB1204B01221A6070471E4B55
:1019B00000221A601D4B1B6803EB83018A001C493F
:1019C0008A585AB90BB1013BF6E74FF0500383F345
:1019D0001188BFF36F8FBFF34F8FFEE7084603EB0D
:1019E00083018A00024451684968516003EB830C0B
:1019F0004FEA8C020832024491420BD003EB83027F
:101A000091000B4A0A445268D1680A4A1160074A99
:101A100013607047486862469100054A0A44506066
:101A2000ECE700BF780000108C0000109800001058
:101A3000140100107405001058B110B50C46094A85
:101A400011681831FFF7A1F801212046FFF770FD5A
:101A500010BD4FF0500383F31188BFF36F8FBFF3B6
:101A60004F8FFEE77405001038B570B10D4614466F
:101A70000A4A11681831FFF77DF80CB14FF0FF35B5
:101A800021462846FFF754FD38BD4FF0500383F33D
:101A90001188BFF36F8FBFF34F8FFEE774050010FF
:101AA00038B5C368DC6824B304F118052846FFF78D
:101AB00085F8184B1B682BBB251D2846FFF77EF8C1
:101AC000E06A154B1B68984201D9134B186000EB74
:101AD00080002946114B03EB8000FFF74BF8E26AC8
:101AE0000F4B1B68DB6A9A4211D901200D4B18601D
:101AF00038BD4FF0500383F31188BFF36F8FBFF3EE
:101B00004F8FFEE729460848FFF734F8E7E7002043
:101B1000EEE700BF780000109800001014010010DC
:101B2000740500108C000010D0000010034B1B68DF
:101B30000360034B1B684360704700BF88000010C0
:101B40009C000010F8B5C8B10C460546F9B100F08C
:101B500009FD1B4B19686B68C81A2268B2F1FF3F78
:101B600026D0184E36682F68B74201D08B4224D950
:101B7000824215D80023236001241AE04FF050035D
:101B800083F31188BFF36F8FBFF34F8FFEE74FF0E2
:101B9000500383F31188BFF36F8FBFF34F8FFEE7BE
:101BA0005B1A134423602846FFF7C0FF002400E0BF
:101BB000002400F0F9FC2046F8BD0124F9E700BF3D
:101BC0009C00001088000010014B01221A60704731
:101BD0008C000010054B1B6833B1054B1B680BB123
:101BE00000207047022070470120704794000010C9
:101BF0007800001000283BD038B504461E4B1B6807
:101C0000834208D04FF0500383F31188BFF36F8FE6
:101C1000BFF34F8FFEE7036D43B94FF0500383F3DB
:101C20001188BFF36F8FBFF34F8FFEE7013B036552
:101C3000C16AC26C91421DD00BB1002038BD051D98
:101C40002846FEF7BBFFE06CE062C0F13803A361F9
:101C50000A4B1B68984201D9084B186000EB8000C2
:101C60002946074B03EB8000FEF784FF0120E5E7E0
:101C7000002070470020E1E7740500109800001074
:101C800014010010064B1A6813682BB90123036076
:101C900023B9D368186870470023F8E7002070471D
:101CA0007806001008B54160006191420CD8D21A44
:101CB00083699A4201D3012008BD011D0B4B1868AE
:101CC000FEF763FF0020F7E79A422CBF00220122B3
:101CD000994238BF00220AB10120EDE7011D044BF3
:101CE0001868FEF752FF0020E6E700BF74060010F8
:101CF0007806001030B583B000F034FC114B1B683F
:101D00001BB100F051FC03B030BD0F4D2846FEF76B
:101D100023FF0E4C2046FEF71FFF0D4B1D600D4BA1
:101D20001C60002300930C4B0C4A10210A20FFF783
:101D30004BF8044B18600028E3D00949FFF772FA0A
:101D4000DFE700BF70060010900600107C06001050
:101D5000780600107406001078050010C805001001
:101D60009028100810B588B0FFF7C4FF124B1B680D
:101D7000CBB100240594069407AA06A905A800F093
:101D800057FA059B0293069B019302230093234677
:101D9000079A0A490A48FFF70DFC0A4B186010B170
:101DA000012008B010BD4FF0500383F31188BFF33A
:101DB0006F8FBFF34F8FFEE7700600109828100852
:101DC000CD2010086C060010B8B19C460346184898
:101DD000006858B300B585B00091019202930529BF
:101DE0001CDCFFF7F7FE022810D000231A466946D4
:101DF0000F480068FFF73BF815E04FF0500383F3FE
:101E00001188BFF36F8FBFF34F8FFEE70023069A51
:101E1000694607480068FFF72AF804E00023624695
:101E20006946FFF7E8F805B05DF804FB002070474D
:101E30007006001070B582B01B4B1B681A6862B345
:101E4000DB681E68DC68251D2846FEF7B7FE236A9E
:101E50002046984794F8283013F0040FECD0A3697B
:101E600033449E4207D26360246129460E4B1868B2
:101E7000FEF78BFEE0E7002100910B46324620463C
:101E8000FFF7A2FF0028D7D14FF0500383F311884A
:101E9000BFF36F8FBFF34F8FFEE7044A106802490C
:101EA0000860136002B070BD780600107406001060
:101EB00038B50546FFF740FC0446074B1B688342D4
:101EC00005D800232B60044B1C60204638BDFFF76B
:101ED000B1FF01232B60F6E76806001070B582B0F1
:101EE00006460D4617490968C968CC68201DFEF7EB
:101EF00065FE94F828C01CF0040F08D12CF0010CEA
:101F000084F828C0236A2046984702B070BDA169B2
:101F100033462A4631442046FFF7C4FE0028F1D05C
:101F2000002100910B4632462046FFF74DFF002866
:101F3000E8D14FF0500383F31188BFF36F8FBFF3E5
:101F40004F8FFEE77806001070B582B006460C464B
:101F5000FFF7EAFB01A8FFF7ABFF019B3BBB054680
:101F6000B04228BF002C19D024B1134A126812685D
:101F7000DAB901242246711B104B1868FFF766F985
:101F8000FFF76CFCA8B94FF0E0234FF08052C3F884
:101F9000042DBFF34F8FBFF36F8F0AE0FFF75EFC96
:101FA00029463046FFF79AFF03E01C46E2E7FFF7B9
:101FB00055FC02B070BD00BF740600107006001022
:101FC00010B588B002E0049B002B0FDA002204A9B0
:101FD0003D4B1868FFF776F8002873D0049B002B60
:101FE000F1DA07990698059B9847ECE7069C636928
:101FF00013B1201DFEF7E2FD03A8FFF759FF049B74
:10200000092BE3D8DFE803F0050505303750050557
:10201000303794F8283043F0010384F82830059BCA
:10202000A169024619442046FFF73CFE0028CDD0A6
:10203000236A2046984794F8283013F0040FC5D03F
:10204000A269002100910B46059802442046FFF743
:10205000BBFE0028BAD14FF0500383F31188BFF3C1
:102060006F8FBFF34F8FFEE794F8283023F0010302
:1020700084F82830AAE794F8283043F0010384F864
:1020800028300599A16131B103460246014420463A
:10209000FFF708FE9AE74FF0500383F31188BFF370
:1020A0006F8FBFF34F8FFEE794F8283013F0020FC5
:1020B00004D023F0010384F8283087E7204600F09D
:1020C000A9F983E708B010BD7006001000B583B011
:1020D00001A8FFF7D7FD0199FFF736FFFFF770FF63
:1020E000F6E70000EFF305832BB9064B186828B913
:1020F00001221A6070476FF0050070474FF0FF3003
:10210000704700BF5C0D0010EFF3058373B90A4BF5
:102110001B68012B0DD110B50024084BDC77064B52
:1021200002221A60FFF7B4FA204610BD6FF00500D6
:1021300070474FF0FF3070475C0D001000ED00E07D
:10214000F0B587B000240594EFF3058474BB68B341
:1021500022B31568936903B918235C1E372C49D83C
:10216000546814F0010F47D156696EB14FEA960CCE
:1021700094682CB1D7685B2F02D9176907B1C6B92B
:102180002CB14FF0FF340EE04FF0800CF0E7D46834
:102190008CB9146994B14FF0FF3404E01546002463
:1021A00018234FF0800C012C0AD0ACB1059807B071
:1021B000F0BD0124F7E74FF0FF34F4E70024F2E725
:1021C000146992680292019400930B466246294674
:1021D000FFF7F0F90590E9E705AA019200930B4695
:1021E0001FFA8CF22946FFF720FA0128DED00023DF
:1021F0000593DBE70020DAE70020D8E708B5EFF326
:10220000058333B908B9002008BDFFF7A3FB002000
:10221000FAE76FF00500F7E7034B0360034B0B6031
:1022200080231360704700BF000D0010000B0010EA
:10223000034B0360034B0B604FF4807313607047D4
:10224000A40A0010A4060010124A12F0070F1ED0B4
:10225000D11D21F00701C1F5705313440A460E4801
:102260000260002141601344083B23F007030B4840
:10227000036059601960991A51601360084B196026
:10228000084B1960084B4FF000421A6070474FF43A
:102290007053E4E7800D0010780D0010740D0010ED
:1022A0006C0D0010700D0010600D0010164B1A46DA
:1022B0001B688342FBD3516802EB010C844509D0B3
:1022C000416800EB010C634509D00360904219D0CE
:1022D000106070474068014451601046F0E710B448
:1022E0000A4C2468A3420BD05B6819444160136810
:1022F0001B680360904200D010605DF8044B70478B
:102300000460F7E7704700BF780D0010740D0010EF
:1023100038B50446FFF708FA384B1B68B3B1384BA1
:102320001B681C4250D1002C50D004F1080214F05C
:10233000070F02D022F007020832002A55D0314B95
:102340001B68934253D330490C6804E0FFF77CFFCD
:10235000E5E721461C466368934202D22368002BBE
:10236000F7D1264B1B68A34243D00D68083523687C
:102370000B6063689B1A102B10D9A01810F0070F80
:1023800008D04FF0500383F31188BFF36F8FBFF372
:102390004F8FFEE743606260FFF788FF626819496C
:1023A0000B689B1A0B60194909688B4201D21749C7
:1023B0000B60134B1B681343636000232360144AB4
:1023C00013680133136002E0002500E00025FFF7E9
:1023D00045FA15F0070F0ED04FF0500383F3118824
:1023E000BFF36F8FBFF34F8FFEE70025EFE70025A8
:1023F000EDE70025EBE7284638BD00BF740D00105F
:10240000600D0010700D0010780D00106C0D0010A4
:10241000680D0010002834D038B50446A0F1080536
:1024200050F8043C174A1268134208D14FF0500389
:1024300083F31188BFF36F8FBFF34F8FFEE750F820
:10244000081C41B14FF0500383F31188BFF36F8F25
:10245000BFF34F8FFEE723EA020340F8043CFFF787
:1024600063F954F8041C084A13680B4413602846A7
:10247000FFF71CFF054A136801331360FFF7EEF9FD
:1024800038BD7047600D0010700D0010640D001015
:1024900082B0002301930D4B1B68B3F1FF3F08D0BE
:1024A0004FF0500383F31188BFF36F8FBFF34F8F4B
:1024B000FEE74FF0500383F31188BFF36F8FBFF334
:1024C0004F8F019B002BFCD002B070471000001012
:1024D00008480068006880F308884FF0000080F327
:1024E000148862B661B6BFF34F8FBFF36F8F00DF02
:1024F00000BF000008ED00E0DFF80C00016841F4C7
:10250000700101607047000088ED00E04FF08073BB
:1025100040F8043C21F0010140F8081C054B40F84C
:102520000C3C40F8202C6FF0020340F8243C443867
:10253000704700BF91241008000000000000000058
:10254000074B19680868B0E8F04F80F30988BFF3BB
:102550006F8F4FF0000080F311887047AFF3008059
:10256000740500104FF0500383F31188BFF36F8F91
:10257000BFF34F8F0B4A136801331360012B00D058
:1025800070474FF0E023D3F8043D13F0FF0FF7D06E
:102590004FF0500383F31188BFF36F8FBFF34F8F5A
:1025A000FEE700BF10000010094B1B6843B94FF055
:1025B000500383F31188BFF36F8FBFF34F8FFEE794
:1025C000013B034A13600BB983F31188704700BFC6
:1025D00010000010000000000000000000000000DB
:1025E000EFF30980BFF36F8F154B1A681EF0100FC1
:1025F00008BF20ED108A20E9F04F10602DE9090096
:102600004FF0500080F31188BFF34F8FBFF36F8FEF
:10261000FFF7C6F94FF0000080F3118809BC196874
:102620000868B0E8F04F1EF0100F08BFB0EC108A39
:1026300080F30988BFF36F8F704700BFAFF300804E
:102640007405001008B54FF0500383F31188BFF3F1
:102650006F8FBFF34F8FFFF775F828B14FF0E0236E
:102660004FF08052C3F8042D002383F3118808BD76
:102670004FF0E022002313619361054B1B6805496D
:10268000A1FB03139B09013B5361072313617047AF
:1026900008000010D34D62104FF0E023D3F8002D56
:1026A0003D4B9A421CD04FF0E023D3F8002D3B4B1A
:1026B0009A421ED030B583B0394B1A78D2B201920B
:1026C000FF221A701B78DBB28DF803309DF80330BF
:1026D00003F05003334A1370334B07221A601BE098
:1026E0004FF0500383F31188BFF36F8FBFF34F8F09
:1026F000FEE74FF0500383F31188BFF36F8FBFF3F2
:102700004F8FFEE7284A1368013B13609DF80330A2
:102710005B00DBB28DF803309DF8033013F0800FBF
:10272000F0D1214B1B68032B08D04FF0500383F3EB
:102730001188BFF36F8FBFF34F8FFEE71B021A4A5A
:10274000136003F4E0631360019BDBB2144A13705F
:102750004FF0E024D4F8203D43F47003C4F8203D4A
:10276000D4F8203D43F07043C4F8203DFFF780FFCC
:1027700000250E4B1D60FFF7BFFED4F8343F43F039
:102780004043C4F8343FFFF7A3FEFFF709F9FFF712
:102790007FFE284603B030BD71C20F4170C20F41A9
:1027A00000E400E08449001080490010100000108F
:1027B000EFF305830F2B0FD9114A9B5CDBB2114A53
:1027C00012789A4208D94FF0500383F31188BFF36F
:1027D0006F8FBFF34F8FFEE74FF0E023D3F80C3D30
:1027E00003F4E063084A1268934208D94FF050039B
:1027F00083F31188BFF36F8FBFF34F8FFEE77047EE
:10280000F0E300E08449001080490010DFF838D080
:10281000FEF794F9FEF784F90C480D490D4A0023A0
:1028200002E0D458C4500433C4188C42F9D30A4A85
:102830000A4C002301E013600432A242FBD3FDF7EF
:1028400073FDFDF79DFE704700800410000000102E
:1028500014000010E428100814000010884900102B
:10286000FEE70000F8B500BFF8BC08BC9E46704704
:0C287000F8B500BFF8BC08BC9E467047DD
:10287C0064656661756C745461736B0049444C45B6
:10288C0000000000546D725100000000546D722065
:10289C00537663007C281008000000000000000044
:1028AC000000000000000000000200001800000002
:1028BC000000000000000000000000000102030402
:0828CC000102030406070809DC
:0828D40048DBFF7F010000005A
:0428DC0009031008D4
:0428E000E1021008F9
:1028E40001000000100000000090D0030090D0030D
:0428F400AAAAAAAA38
:040000050810280DAA
:00000001FF
